{
  "_format": "hh-sol-artifact-1",
  "contractName": "MyContractV1",
  "sourceName": "contracts/MyContractV1.sol",
  "abi": [
    {
      "anonymous": false,
      "inputs": [
        {
          "indexed": false,
          "internalType": "uint8",
          "name": "version",
          "type": "uint8"
        }
      ],
      "name": "Initialized",
      "type": "event"
    },
    {
      "inputs": [],
      "name": "getValue",
      "outputs": [
        {
          "internalType": "uint256",
          "name": "",
          "type": "uint256"
        }
      ],
      "stateMutability": "view",
      "type": "function"
    },
    {
      "inputs": [
        {
          "internalType": "uint256",
          "name": "initValue",
          "type": "uint256"
        }
      ],
      "name": "initialize",
      "outputs": [],
      "stateMutability": "nonpayable",
      "type": "function"
    },
    {
      "inputs": [
        {
          "internalType": "uint256",
          "name": "newValue",
          "type": "uint256"
        }
      ],
      "name": "setValue",
      "outputs": [],
      "stateMutability": "nonpayable",
      "type": "function"
    }
  ],
  "bytecode": "0x608060405234801561001057600080fd5b5061044d806100206000396000f3fe608060405234801561001057600080fd5b50600436106100415760003560e01c806320965255146100465780635524107714610064578063fe4b84df14610080575b600080fd5b61004e61009c565b60405161005b91906102d7565b60405180910390f35b61007e60048036038101906100799190610232565b6100a6565b005b61009a60048036038101906100959190610232565b6100bc565b005b6000600154905090565b6001816100b39190610303565b60018190555050565b60008060019054906101000a900460ff161590508080156100ed5750600160008054906101000a900460ff1660ff16105b8061011a57506100fc306101fa565b1580156101195750600160008054906101000a900460ff1660ff16145b5b610159576040517f08c379a0000000000000000000000000000000000000000000000000000000008152600401610150906102b7565b60405180910390fd5b60016000806101000a81548160ff021916908360ff1602179055508015610196576001600060016101000a81548160ff0219169083151502179055505b8160018190555080156101f65760008060016101000a81548160ff0219169083151502179055507f7f26b83ff96e1f2b6a682f133852f6798a09c465da95921460cefb384740249860016040516101ed919061029c565b60405180910390a15b5050565b6000808273ffffffffffffffffffffffffffffffffffffffff163b119050919050565b60008135905061022c81610400565b92915050565b60006020828403121561024457600080fd5b60006102528482850161021d565b91505092915050565b61026481610370565b82525050565b6000610277602e836102f2565b9150610282826103b1565b604082019050919050565b61029681610359565b82525050565b60006020820190506102b1600083018461025b565b92915050565b600060208201905081810360008301526102d08161026a565b9050919050565b60006020820190506102ec600083018461028d565b92915050565b600082825260208201905092915050565b600061030e82610359565b915061031983610359565b9250827fffffffffffffffffffffffffffffffffffffffffffffffffffffffffffffffff0382111561034e5761034d610382565b5b828201905092915050565b6000819050919050565b600060ff82169050919050565b600061037b82610363565b9050919050565b7f4e487b7100000000000000000000000000000000000000000000000000000000600052601160045260246000fd5b7f496e697469616c697a61626c653a20636f6e747261637420697320616c72656160008201527f647920696e697469616c697a6564000000000000000000000000000000000000602082015250565b61040981610359565b811461041457600080fd5b5056fea2646970667358221220f2ef7a5846b45dd9d8a4199ec016b8b4088e3123200d3420c0e7f8f77f78831664736f6c63430008020033",
  "linkReferences": {},
  "deployedLinkReferences": {}
}