{
  "_format": "hh-sol-artifact-1",
  "contractName": "MyContractV2",
  "sourceName": "contracts/MyContractV2.sol",
  "abi": [
    {
      "anonymous": false,
      "inputs": [
        {
          "indexed": false,
          "internalType": "uint8",
          "name": "version",
          "type": "uint8"
        }
      ],
      "name": "Initialized",
      "type": "event"
    },
    {
      "inputs": [],
      "name": "getStr",
      "outputs": [
        {
          "internalType": "string",
          "name": "",
          "type": "string"
        }
      ],
      "stateMutability": "view",
      "type": "function"
    },
    {
      "inputs": [],
      "name": "getValue",
      "outputs": [
        {
          "internalType": "uint256",
          "name": "",
          "type": "uint256"
        }
      ],
      "stateMutability": "view",
      "type": "function"
    },
    {
      "inputs": [
        {
          "internalType": "uint256",
          "name": "initValue",
          "type": "uint256"
        }
      ],
      "name": "initialize",
      "outputs": [],
      "stateMutability": "nonpayable",
      "type": "function"
    },
    {
      "inputs": [
        {
          "internalType": "string",
          "name": "newStr",
          "type": "string"
        }
      ],
      "name": "setStr",
      "outputs": [],
      "stateMutability": "nonpayable",
      "type": "function"
    },
    {
      "inputs": [
        {
          "internalType": "uint256",
          "name": "newValue",
          "type": "uint256"
        }
      ],
      "name": "setValue",
      "outputs": [],
      "stateMutability": "nonpayable",
      "type": "function"
    }
  ],
  "bytecode": "0x608060405234801561001057600080fd5b506107d4806100206000396000f3fe608060405234801561001057600080fd5b50600436106100575760003560e01c8063191347df1461005c57806320965255146100785780635524107714610096578063b8c9e4ed146100b2578063fe4b84df146100d0575b600080fd5b6100766004803603810190610071919061042d565b6100ec565b005b610080610106565b60405161008d919061056e565b60405180910390f35b6100b060048036038101906100ab919061046e565b610110565b005b6100ba61011a565b6040516100c7919061052c565b60405180910390f35b6100ea60048036038101906100e5919061046e565b6101ac565b005b806002908051906020019061010292919061030d565b5050565b6000600154905090565b8060018190555050565b60606002805461012990610666565b80601f016020809104026020016040519081016040528092919081815260200182805461015590610666565b80156101a25780601f10610177576101008083540402835291602001916101a2565b820191906000526020600020905b81548152906001019060200180831161018557829003601f168201915b5050505050905090565b60008060019054906101000a900460ff161590508080156101dd5750600160008054906101000a900460ff1660ff16105b8061020a57506101ec306102ea565b1580156102095750600160008054906101000a900460ff1660ff16145b5b610249576040517f08c379a00000000000000000000000000000000000000000000000000000000081526004016102409061054e565b60405180910390fd5b60016000806101000a81548160ff021916908360ff1602179055508015610286576001600060016101000a81548160ff0219169083151502179055505b8160018190555080156102e65760008060016101000a81548160ff0219169083151502179055507f7f26b83ff96e1f2b6a682f133852f6798a09c465da95921460cefb384740249860016040516102dd9190610511565b60405180910390a15b5050565b6000808273ffffffffffffffffffffffffffffffffffffffff163b119050919050565b82805461031990610666565b90600052602060002090601f01602090048101928261033b5760008555610382565b82601f1061035457805160ff1916838001178555610382565b82800160010185558215610382579182015b82811115610381578251825591602001919060010190610366565b5b50905061038f9190610393565b5090565b5b808211156103ac576000816000905550600101610394565b5090565b60006103c36103be846105ae565b610589565b9050828152602081018484840111156103db57600080fd5b6103e6848285610624565b509392505050565b600082601f8301126103ff57600080fd5b813561040f8482602086016103b0565b91505092915050565b60008135905061042781610787565b92915050565b60006020828403121561043f57600080fd5b600082013567ffffffffffffffff81111561045957600080fd5b610465848285016103ee565b91505092915050565b60006020828403121561048057600080fd5b600061048e84828501610418565b91505092915050565b6104a081610612565b82525050565b60006104b1826105df565b6104bb81856105ea565b93506104cb818560208601610633565b6104d481610727565b840191505092915050565b60006104ec602e836105ea565b91506104f782610738565b604082019050919050565b61050b816105fb565b82525050565b60006020820190506105266000830184610497565b92915050565b6000602082019050818103600083015261054681846104a6565b905092915050565b60006020820190508181036000830152610567816104df565b9050919050565b60006020820190506105836000830184610502565b92915050565b60006105936105a4565b905061059f8282610698565b919050565b6000604051905090565b600067ffffffffffffffff8211156105c9576105c86106f8565b5b6105d282610727565b9050602081019050919050565b600081519050919050565b600082825260208201905092915050565b6000819050919050565b600060ff82169050919050565b600061061d82610605565b9050919050565b82818337600083830152505050565b60005b83811015610651578082015181840152602081019050610636565b83811115610660576000848401525b50505050565b6000600282049050600182168061067e57607f821691505b60208210811415610692576106916106c9565b5b50919050565b6106a182610727565b810181811067ffffffffffffffff821117156106c0576106bf6106f8565b5b80604052505050565b7f4e487b7100000000000000000000000000000000000000000000000000000000600052602260045260246000fd5b7f4e487b7100000000000000000000000000000000000000000000000000000000600052604160045260246000fd5b6000601f19601f8301169050919050565b7f496e697469616c697a61626c653a20636f6e747261637420697320616c72656160008201527f647920696e697469616c697a6564000000000000000000000000000000000000602082015250565b610790816105fb565b811461079b57600080fd5b5056fea2646970667358221220695d6de585338901e3075d73d77c2b0a5c556ec4443c0eee6ebedcad26b00dd564736f6c63430008020033",
  "linkReferences": {},
  "deployedLinkReferences": {}
}